{
  "contractName": "Versioning",
  "abi": [
    {
      "constant": true,
      "inputs": [
        {
          "name": "",
          "type": "uint256"
        },
        {
          "name": "",
          "type": "uint256"
        }
      ],
      "name": "doc",
      "outputs": [
        {
          "name": "creator",
          "type": "address"
        },
        {
          "name": "value",
          "type": "string"
        },
        {
          "name": "creation",
          "type": "uint256"
        },
        {
          "name": "version",
          "type": "uint8"
        }
      ],
      "payable": false,
      "stateMutability": "view",
      "type": "function",
      "signature": "0xf3a924e3"
    },
    {
      "anonymous": false,
      "inputs": [
        {
          "indexed": false,
          "name": "id",
          "type": "uint256"
        },
        {
          "indexed": false,
          "name": "version",
          "type": "uint256"
        }
      ],
      "name": "CreateDocument",
      "type": "event",
      "signature": "0xee2c3f7056dbd5effed6f3fa27b2eb2007ccd25dd5179c7bfcb751312944bcf7"
    },
    {
      "anonymous": false,
      "inputs": [
        {
          "indexed": false,
          "name": "usr",
          "type": "address"
        },
        {
          "indexed": false,
          "name": "doc",
          "type": "string"
        },
        {
          "indexed": false,
          "name": "version",
          "type": "uint256"
        }
      ],
      "name": "ChangeDocument",
      "type": "event",
      "signature": "0x34244c4ec878d3f192e60998a65b7ecb9a2b2ea5ac8bdfa40285505a034cfb67"
    },
    {
      "constant": false,
      "inputs": [
        {
          "name": "id",
          "type": "uint256"
        },
        {
          "name": "docv",
          "type": "string"
        }
      ],
      "name": "create",
      "outputs": [
        {
          "name": "docId",
          "type": "uint256"
        },
        {
          "name": "ver",
          "type": "uint256"
        }
      ],
      "payable": false,
      "stateMutability": "nonpayable",
      "type": "function",
      "signature": "0x0118fa49"
    },
    {
      "constant": false,
      "inputs": [
        {
          "name": "id",
          "type": "uint256"
        },
        {
          "name": "ver",
          "type": "uint256"
        },
        {
          "name": "docv",
          "type": "string"
        }
      ],
      "name": "update",
      "outputs": [
        {
          "name": "newVer",
          "type": "uint256"
        }
      ],
      "payable": false,
      "stateMutability": "nonpayable",
      "type": "function",
      "signature": "0xd753fd25"
    },
    {
      "constant": true,
      "inputs": [
        {
          "name": "id",
          "type": "uint256"
        },
        {
          "name": "ver",
          "type": "uint256"
        }
      ],
      "name": "get",
      "outputs": [
        {
          "name": "creator",
          "type": "address"
        },
        {
          "name": "value",
          "type": "string"
        },
        {
          "name": "creation",
          "type": "uint256"
        },
        {
          "name": "version",
          "type": "uint8"
        }
      ],
      "payable": false,
      "stateMutability": "view",
      "type": "function",
      "signature": "0x669e48aa"
    },
    {
      "constant": true,
      "inputs": [
        {
          "name": "id",
          "type": "uint256"
        }
      ],
      "name": "getNumVer",
      "outputs": [
        {
          "name": "num",
          "type": "uint256"
        }
      ],
      "payable": false,
      "stateMutability": "view",
      "type": "function",
      "signature": "0x397ce25c"
    }
  ],
  "bytecode": "0x608060405234801561001057600080fd5b50610fac806100206000396000f3fe60806040526004361061006d576000357c0100000000000000000000000000000000000000000000000000000000900463ffffffff1680630118fa4914610072578063397ce25c1461015f578063669e48aa146101ae578063d753fd25146102b3578063f3a924e3146103a3575b600080fd5b34801561007e57600080fd5b506101426004803603604081101561009557600080fd5b8101908080359060200190929190803590602001906401000000008111156100bc57600080fd5b8201836020820111156100ce57600080fd5b803590602001918460018302840111640100000000831117156100f057600080fd5b91908080601f016020809104026020016040519081016040528093929190818152602001838380828437600081840152601f19601f8201169050808301925050505050505091929192905050506104a8565b604051808381526020018281526020019250505060405180910390f35b34801561016b57600080fd5b506101986004803603602081101561018257600080fd5b8101908080359060200190929190505050610641565b6040518082815260200191505060405180910390f35b3480156101ba57600080fd5b506101f1600480360360408110156101d157600080fd5b810190808035906020019092919080359060200190929190505050610660565b604051808573ffffffffffffffffffffffffffffffffffffffff1673ffffffffffffffffffffffffffffffffffffffff168152602001806020018481526020018360ff1660ff168152602001828103825285818151815260200191508051906020019080838360005b8381101561027557808201518184015260208101905061025a565b50505050905090810190601f1680156102a25780820380516001836020036101000a031916815260200191505b509550505050505060405180910390f35b3480156102bf57600080fd5b5061038d600480360360608110156102d657600080fd5b8101908080359060200190929190803590602001909291908035906020019064010000000081111561030757600080fd5b82018360208201111561031957600080fd5b8035906020019184600183028401116401000000008311171561033b57600080fd5b91908080601f016020809104026020016040519081016040528093929190818152602001838380828437600081840152601f19601f8201169050808301925050505050505091929192905050506107f2565b6040518082815260200191505060405180910390f35b3480156103af57600080fd5b506103e6600480360360408110156103c657600080fd5b810190808035906020019092919080359060200190929190505050610d88565b604051808573ffffffffffffffffffffffffffffffffffffffff1673ffffffffffffffffffffffffffffffffffffffff168152602001806020018481526020018360ff1660ff168152602001828103825285818151815260200191508051906020019080838360005b8381101561046a57808201518184015260208101905061044f565b50505050905090810190601f1680156104975780820380516001836020036101000a031916815260200191505b509550505050505060405180910390f35b6000806000835114151515610525576040517f08c379a000000000000000000000000000000000000000000000000000000000815260040180806020018281038252600b8152602001807f4e6f20646f63756d656e7400000000000000000000000000000000000000000081525060200191505060405180910390fd5b6000808581526020019081526020016000206080604051908101604052803373ffffffffffffffffffffffffffffffffffffffff168152602001858152602001428152602001600060ff168152509080600181540180825580915050906001820390600052602060002090600402016000909192909190915060008201518160000160006101000a81548173ffffffffffffffffffffffffffffffffffffffff021916908373ffffffffffffffffffffffffffffffffffffffff1602179055506020820151816001019080519060200190610601929190610e99565b506040820151816002015560608201518160030160006101000a81548160ff021916908360ff160217905550505050836000809050915091509250929050565b6000806000838152602001908152602001600020805490509050919050565b6000606060008061066f610f19565b6000808881526020019081526020016000208681548110151561068e57fe5b9060005260206000209060040201608060405190810160405290816000820160009054906101000a900473ffffffffffffffffffffffffffffffffffffffff1673ffffffffffffffffffffffffffffffffffffffff1673ffffffffffffffffffffffffffffffffffffffff168152602001600182018054600181600116156101000203166002900480601f0160208091040260200160405190810160405280929190818152602001828054600181600116156101000203166002900480156107975780601f1061076c57610100808354040283529160200191610797565b820191906000526020600020905b81548152906001019060200180831161077a57829003601f168201915b50505050508152602001600282015481526020016003820160009054906101000a900460ff1660ff1660ff16815250509050806000015181602001518260400151836060015182925094509450945094505092959194509250565b6000816040516020018082805190602001908083835b60208310151561082d5780518252602082019150602081019050602083039250610808565b6001836020036101000a038019825116818451168082178552505050505050905001915050604051602081830303815290604052805190602001206000808681526020019081526020016000208481548110151561088757fe5b906000526020600020906004020160010160405160200180828054600181600116156101000203166002900480156108f65780601f106108d45761010080835404028352918201916108f6565b820191906000526020600020905b8154815290600101906020018083116108e2575b50509150506040516020818303038152906040528051906020012014151515610987576040517f08c379a00000000000000000000000000000000000000000000000000000000081526004018080602001828103825260098152602001807f53616d652066696c65000000000000000000000000000000000000000000000081525060200191505060405180910390fd5b6000806000868152602001908152602001600020848154811015156109a857fe5b9060005260206000209060040201600101805460018160011615610100020316600290049050111515610a43576040517f08c379a00000000000000000000000000000000000000000000000000000000081526004018080602001828103825260168152602001807f446f63756d656e7420646f65736e27742065786973740000000000000000000081525060200191505060405180910390fd5b6000808581526020019081526020016000206080604051908101604052803373ffffffffffffffffffffffffffffffffffffffff168152602001848152602001428152602001600160008089815260200190815260200160002087815481101515610aaa57fe5b906000526020600020906004020160030160009054906101000a900460ff160160ff168152509080600181540180825580915050906001820390600052602060002090600402016000909192909190915060008201518160000160006101000a81548173ffffffffffffffffffffffffffffffffffffffff021916908373ffffffffffffffffffffffffffffffffffffffff1602179055506020820151816001019080519060200190610b5e929190610e99565b506040820151816002015560608201518160030160006101000a81548160ff021916908360ff1602179055505050507f34244c4ec878d3f192e60998a65b7ecb9a2b2ea5ac8bdfa40285505a034cfb67600080868152602001908152602001600020600160008088815260200190815260200160002086815481101515610be157fe5b906000526020600020906004020160030160009054906101000a900460ff160160ff16815481101515610c1057fe5b906000526020600020906004020160000160009054906101000a900473ffffffffffffffffffffffffffffffffffffffff1683600160008089815260200190815260200160002087815481101515610c6457fe5b906000526020600020906004020160030160009054906101000a900460ff1601604051808473ffffffffffffffffffffffffffffffffffffffff1673ffffffffffffffffffffffffffffffffffffffff168152602001806020018360ff168152602001828103825284818151815260200191508051906020019080838360005b83811015610cff578082015181840152602081019050610ce4565b50505050905090810190601f168015610d2c5780820380516001836020036101000a031916815260200191505b5094505050505060405180910390a1600160008086815260200190815260200160002084815481101515610d5c57fe5b906000526020600020906004020160030160009054906101000a900460ff160160ff1690509392505050565b600060205281600052604060002081815481101515610da357fe5b9060005260206000209060040201600091509150508060000160009054906101000a900473ffffffffffffffffffffffffffffffffffffffff1690806001018054600181600116156101000203166002900480601f016020809104026020016040519081016040528092919081815260200182805460018160011615610100020316600290048015610e765780601f10610e4b57610100808354040283529160200191610e76565b820191906000526020600020905b815481529060010190602001808311610e5957829003601f168201915b5050505050908060020154908060030160009054906101000a900460ff16905084565b828054600181600116156101000203166002900490600052602060002090601f016020900481019282601f10610eda57805160ff1916838001178555610f08565b82800160010185558215610f08579182015b82811115610f07578251825591602001919060010190610eec565b5b509050610f159190610f5b565b5090565b608060405190810160405280600073ffffffffffffffffffffffffffffffffffffffff1681526020016060815260200160008152602001600060ff1681525090565b610f7d91905b80821115610f79576000816000905550600101610f61565b5090565b9056fea165627a7a72305820e5a8f6b0f0b22aed202f1d5a2a15c06b8251714a1c08fda7031c489b74b7f6b20029",
  "source": "pragma solidity >=0.5.0 <0.7.0;\n\n///@title Versioning of a document\n///@author Davide Tarasconi\n///@notice Smart contract that allow to save information about a version of a document\ncontract Versioning{\n    \n    //information about documents\n    struct Document{\n        address creator;    //creator or modifier\n        string value;      //document hash\n        uint creation;      //date of creation\n        uint8 version;      //document version\n    }\n\n    mapping (uint256 => Document[]) public doc;    //list of the documents and relative \"branch\"\n\n    //event to notify the creation of a document\n    event CreateDocument(uint256 id, uint256 version);\n    //event to notify the modification of a document\n    event ChangeDocument(address usr, string doc, uint256 version);\n\n    ///@dev create a new document starting the version from 0\n    ///@param id document identifier\n    ///@param docv document's hash\n    ///@param docId document identifier\n    ///@param ver document version\n    function create(uint256 id, string memory docv) public returns (uint256 docId, uint256 ver){\n        require(bytes(docv).length != 0, \"No document\");  //If document is empty don't execute\n        //require(doc[id][0].value != 0, \"Document already exist\"); //wrong id\n        \n        //Create new document\n        doc[id].push(Document({\n            creator: msg.sender,\n            value: docv,\n            creation: now,\n            version: 0\n        }));\n\n        return (id, 0);\n    }\n\n    ///@dev add a new version of the document\n    ///@param id document identifier\n    ///@param ver actual version of the document\n    ///@param docv document's hash\n    ///@param newVer new version value\n    function update(uint256 id, uint256 ver, string memory docv) public returns (uint256 newVer){\n        require(keccak256(abi.encodePacked(doc[id][ver].value)) != keccak256(abi.encodePacked(docv)), \"Same file\");   //Check if new file is equal to old file\n        require(bytes(doc[id][ver].value).length > 0, \"Document doesn't exist\");  //Check if selected document exist\n        \n        //add new version\n        doc[id].push(Document({\n            creator: msg.sender,\n            value: docv,\n            creation: now,\n            version: doc[id][ver].version+1\n        }));\n\n        emit ChangeDocument(doc[id][doc[id][ver].version+1].creator, docv, doc[id][ver].version+1);\n\n        return doc[id][ver].version+1;\n    }\n    \n    ///@dev get version info\n    ///@param id document identifier\n    ///@param ver actual version of the document\n    function get(uint256 id, uint256 ver) public view returns (address creator, string memory value, uint creation, uint8\n    version){\n        Document memory d = doc[id][ver];\n        return (d.creator, d.value, d.creation, d.version);\n    }\n\n    ///@dev get number of versions of a document\n    ///@param id document identifier\n    function getNumVer(uint256 id) public view returns (uint256 num){\n        return doc[id].length;\n    }\n}",
  "sourcePath": "/home/davide/Documenti/Università/Sistemi orientati ad internet/PROGETTO/Blockchain_versioning/versioning_contract/contracts/Versioning.sol",
  "compiler": {
    "name": "solc",
    "version": "0.5.0+commit.1d4f565a.Emscripten.clang"
  },
  "schemaVersion": "3.0.6",
  "updatedAt": "2019-05-29T12:31:08.670Z",
  "devdoc": {
    "author": "Davide Tarasconi",
    "methods": {
      "create(uint256,string)": {
        "details": "create a new document starting the version from 0",
        "params": {
          "docId": "document identifier",
          "docv": "document's hash",
          "id": "document identifier",
          "ver": "document version"
        }
      },
      "get(uint256,uint256)": {
        "details": "get version info",
        "params": {
          "id": "document identifier",
          "ver": "actual version of the document"
        }
      },
      "getNumVer(uint256)": {
        "details": "get number of versions of a document",
        "params": {
          "id": "document identifier"
        }
      },
      "update(uint256,uint256,string)": {
        "details": "add a new version of the document",
        "params": {
          "docv": "document's hash",
          "id": "document identifier",
          "newVer": "new version value",
          "ver": "actual version of the document"
        }
      }
    },
    "title": "Versioning of a document"
  },
  "userdoc": {
    "methods": {},
    "notice": "Smart contract that allow to save information about a version of a document"
  }
}