{
  "contractName": "Versioning",
  "abi": [
    {
      "constant": true,
      "inputs": [
        {
          "name": "",
          "type": "uint256"
        },
        {
          "name": "",
          "type": "uint256"
        }
      ],
      "name": "doc",
      "outputs": [
        {
          "name": "creator",
          "type": "address"
        },
        {
          "name": "value",
          "type": "uint256"
        },
        {
          "name": "creation",
          "type": "uint256"
        },
        {
          "name": "version",
          "type": "uint8"
        }
      ],
      "payable": false,
      "stateMutability": "view",
      "type": "function",
      "signature": "0xf3a924e3"
    },
    {
      "anonymous": false,
      "inputs": [
        {
          "indexed": false,
          "name": "usr",
          "type": "address"
        },
        {
          "indexed": false,
          "name": "doc",
          "type": "uint256"
        },
        {
          "indexed": false,
          "name": "version",
          "type": "uint256"
        }
      ],
      "name": "ChangeDocument",
      "type": "event",
      "signature": "0x62eeefb1621987227b8e62adabb5bb51f6b7817ec78b39e5025784c181ee0c97"
    },
    {
      "constant": false,
      "inputs": [
        {
          "name": "id",
          "type": "uint256"
        },
        {
          "name": "docv",
          "type": "uint256"
        }
      ],
      "name": "create",
      "outputs": [
        {
          "name": "docId",
          "type": "uint256"
        },
        {
          "name": "ver",
          "type": "uint256"
        }
      ],
      "payable": false,
      "stateMutability": "nonpayable",
      "type": "function",
      "signature": "0x9f7b4579"
    },
    {
      "constant": false,
      "inputs": [
        {
          "name": "id",
          "type": "uint256"
        },
        {
          "name": "ver",
          "type": "uint256"
        },
        {
          "name": "docv",
          "type": "uint256"
        }
      ],
      "name": "update",
      "outputs": [
        {
          "name": "newVer",
          "type": "uint256"
        }
      ],
      "payable": false,
      "stateMutability": "nonpayable",
      "type": "function",
      "signature": "0x6a054250"
    },
    {
      "constant": true,
      "inputs": [
        {
          "name": "id",
          "type": "uint256"
        },
        {
          "name": "ver",
          "type": "uint256"
        }
      ],
      "name": "get",
      "outputs": [
        {
          "name": "creator",
          "type": "address"
        },
        {
          "name": "value",
          "type": "uint256"
        },
        {
          "name": "creation",
          "type": "uint256"
        },
        {
          "name": "version",
          "type": "uint8"
        }
      ],
      "payable": false,
      "stateMutability": "view",
      "type": "function",
      "signature": "0x669e48aa"
    },
    {
      "constant": true,
      "inputs": [
        {
          "name": "id",
          "type": "uint256"
        }
      ],
      "name": "getNumVer",
      "outputs": [
        {
          "name": "num",
          "type": "uint256"
        }
      ],
      "payable": false,
      "stateMutability": "view",
      "type": "function",
      "signature": "0x397ce25c"
    }
  ],
  "bytecode": "0x608060405234801561001057600080fd5b50610a64806100206000396000f3fe60806040526004361061006d576000357c0100000000000000000000000000000000000000000000000000000000900463ffffffff168063397ce25c14610072578063669e48aa146100c15780636a054250146101615780639f7b4579146101c4578063f3a924e314610224575b600080fd5b34801561007e57600080fd5b506100ab6004803603602081101561009557600080fd5b81019080803590602001909291905050506102c4565b6040518082815260200191505060405180910390f35b3480156100cd57600080fd5b50610104600480360360408110156100e457600080fd5b8101908080359060200190929190803590602001909291905050506102e3565b604051808573ffffffffffffffffffffffffffffffffffffffff1673ffffffffffffffffffffffffffffffffffffffff1681526020018481526020018381526020018260ff1660ff16815260200194505050505060405180910390f35b34801561016d57600080fd5b506101ae6004803603606081101561018457600080fd5b810190808035906020019092919080359060200190929190803590602001909291905050506103d9565b6040518082815260200191505060405180910390f35b3480156101d057600080fd5b50610207600480360360408110156101e757600080fd5b8101908080359060200190929190803590602001909291905050506107f8565b604051808381526020018281526020019250505060405180910390f35b34801561023057600080fd5b506102676004803603604081101561024757600080fd5b81019080803590602001909291908035906020019092919050505061097d565b604051808573ffffffffffffffffffffffffffffffffffffffff1673ffffffffffffffffffffffffffffffffffffffff1681526020018481526020018381526020018260ff1660ff16815260200194505050505060405180910390f35b6000806000838152602001908152602001600020805490509050919050565b6000806000806102f16109f6565b6000808881526020019081526020016000208681548110151561031057fe5b9060005260206000209060040201608060405190810160405290816000820160009054906101000a900473ffffffffffffffffffffffffffffffffffffffff1673ffffffffffffffffffffffffffffffffffffffff1673ffffffffffffffffffffffffffffffffffffffff16815260200160018201548152602001600282015481526020016003820160009054906101000a900460ff1660ff1660ff16815250509050806000015181602001518260400151836060015194509450945094505092959194509250565b600081600080868152602001908152602001600020848154811015156103fb57fe5b90600052602060002090600402016001015414151515610483576040517f08c379a00000000000000000000000000000000000000000000000000000000081526004018080602001828103825260098152602001807f53616d652066696c65000000000000000000000000000000000000000000000081525060200191505060405180910390fd5b6000806000868152602001908152602001600020848154811015156104a457fe5b90600052602060002090600402016001015411151561052b576040517f08c379a00000000000000000000000000000000000000000000000000000000081526004018080602001828103825260168152602001807f446f63756d656e7420646f65736e27742065786973740000000000000000000081525060200191505060405180910390fd5b6000808581526020019081526020016000206080604051908101604052803373ffffffffffffffffffffffffffffffffffffffff16815260200184815260200142815260200160016000808981526020019081526020016000208781548110151561059257fe5b906000526020600020906004020160030160009054906101000a900460ff160160ff168152509080600181540180825580915050906001820390600052602060002090600402016000909192909190915060008201518160000160006101000a81548173ffffffffffffffffffffffffffffffffffffffff021916908373ffffffffffffffffffffffffffffffffffffffff160217905550602082015181600101556040820151816002015560608201518160030160006101000a81548160ff021916908360ff1602179055505050507f62eeefb1621987227b8e62adabb5bb51f6b7817ec78b39e5025784c181ee0c976000808681526020019081526020016000206001600080888152602001908152602001600020868154811015156106b657fe5b906000526020600020906004020160030160009054906101000a900460ff160160ff168154811015156106e557fe5b906000526020600020906004020160000160009054906101000a900473ffffffffffffffffffffffffffffffffffffffff168360016000808981526020019081526020016000208781548110151561073957fe5b906000526020600020906004020160030160009054906101000a900460ff1601604051808473ffffffffffffffffffffffffffffffffffffffff1673ffffffffffffffffffffffffffffffffffffffff1681526020018381526020018260ff168152602001935050505060405180910390a16001600080868152602001908152602001600020848154811015156107cc57fe5b906000526020600020906004020160030160009054906101000a900460ff160160ff1690509392505050565b60008060008314151515610874576040517f08c379a000000000000000000000000000000000000000000000000000000000815260040180806020018281038252600b8152602001807f4e6f20646f63756d656e7400000000000000000000000000000000000000000081525060200191505060405180910390fd5b6000808581526020019081526020016000206080604051908101604052803373ffffffffffffffffffffffffffffffffffffffff168152602001858152602001428152602001600060ff168152509080600181540180825580915050906001820390600052602060002090600402016000909192909190915060008201518160000160006101000a81548173ffffffffffffffffffffffffffffffffffffffff021916908373ffffffffffffffffffffffffffffffffffffffff160217905550602082015181600101556040820151816002015560608201518160030160006101000a81548160ff021916908360ff160217905550505050836000809050915091509250929050565b60006020528160005260406000208181548110151561099857fe5b9060005260206000209060040201600091509150508060000160009054906101000a900473ffffffffffffffffffffffffffffffffffffffff16908060010154908060020154908060030160009054906101000a900460ff16905084565b608060405190810160405280600073ffffffffffffffffffffffffffffffffffffffff1681526020016000815260200160008152602001600060ff168152509056fea165627a7a72305820f87e1d92ecd299853ac1d145d8417521d4c9e7503cc93dda0d1ab2d0985057c50029",
  "source": "pragma solidity >=0.5.0 <0.7.0;\n\n///@title Versioning of a document\n///@author Davide Tarasconi\n///@notice Smart contract that allow to save information about a version of a document\ncontract Versioning{\n    \n    //information about documents\n    struct Document{\n        address creator;    //creator or modifier\n        uint256 value;      //document hash\n        uint creation;      //date of creation\n        uint8 version;      //document version\n    }\n\n    mapping (uint256 => Document[]) public doc;    //list of the documents and relative \"branch\"\n\n    //event to notify the modification of a document\n    event ChangeDocument(address usr, uint256 doc, uint256 version);\n\n    ///@dev create a new document starting the version from 0\n    ///@param id document identifier\n    ///@param docv document's hash\n    ///@param docId document identifier\n    ///@param ver document version\n    function create(uint256 id, uint256 docv) public returns (uint256 docId, uint256 ver){\n        require(docv != 0, \"No document\");  //If document is empty don't execute\n        //require(doc[id][0].value != 0, \"Document already exist\"); //wrong id\n        \n        //Create new document\n        doc[id].push(Document({\n            creator: msg.sender,\n            value: docv,\n            creation: now,\n            version: 0\n        }));\n\n        return (id, 0);\n    }\n\n    ///@dev add a new version of the document\n    ///@param id document identifier\n    ///@param ver actual version of the document\n    ///@param docv document's hash\n    ///@param newVer new version value\n    function update(uint256 id, uint256 ver, uint256 docv) public returns (uint256 newVer){\n        require(doc[id][ver].value != docv, \"Same file\");   //Check if new file is equal to old file\n        require(doc[id][ver].value > 0, \"Document doesn't exist\");  //Check if selected document exist\n        \n        //add new version\n        doc[id].push(Document({\n            creator: msg.sender,\n            value: docv,\n            creation: now,\n            version: doc[id][ver].version+1\n        }));\n\n        emit ChangeDocument(doc[id][doc[id][ver].version+1].creator, docv, doc[id][ver].version+1);\n\n        return doc[id][ver].version+1;\n    }\n    \n    ///@dev get version info\n    ///@param id document identifier\n    ///@param ver actual version of the document\n    function get(uint256 id, uint256 ver) public view returns (address creator, uint256 value, uint creation, uint8\n    version){\n        Document memory d = doc[id][ver];\n        return (d.creator, d.value, d.creation, d.version);\n    }\n\n    ///@dev get number of versions of a document\n    ///@param id document identifier\n    function getNumVer(uint256 id) public view returns (uint256 num){\n        return doc[id].length;\n    }\n}",
  "sourcePath": "/home/davide/Documenti/Università/Sistemi orientati ad internet/PROGETTO/Blockchain_versioning/versioning_contract/contracts/Versioning.sol",
  "compiler": {
    "name": "solc",
    "version": "0.5.0+commit.1d4f565a.Emscripten.clang"
  },
  "schemaVersion": "3.0.6",
  "updatedAt": "2019-05-16T12:39:16.979Z",
  "devdoc": {
    "author": "Davide Tarasconi",
    "methods": {
      "create(uint256,uint256)": {
        "details": "create a new document starting the version from 0",
        "params": {
          "docId": "document identifier",
          "docv": "document's hash",
          "id": "document identifier",
          "ver": "document version"
        }
      },
      "get(uint256,uint256)": {
        "details": "get version info",
        "params": {
          "id": "document identifier",
          "ver": "actual version of the document"
        }
      },
      "getNumVer(uint256)": {
        "details": "get number of versions of a document",
        "params": {
          "id": "document identifier"
        }
      },
      "update(uint256,uint256,uint256)": {
        "details": "add a new version of the document",
        "params": {
          "docv": "document's hash",
          "id": "document identifier",
          "newVer": "new version value",
          "ver": "actual version of the document"
        }
      }
    },
    "title": "Versioning of a document"
  },
  "userdoc": {
    "methods": {},
    "notice": "Smart contract that allow to save information about a version of a document"
  }
}